:0C0BC600476F2120200053544F502100A5
:040BE60002270000E2
:100B8F00758901C28DD28C758CFC758A18D2A9D249
:040B9F00AFC2B92206
:100AD500120BA3120B8F7BFF7A0B79C67D017F0268
:100AE500120B067FE87E03120B7A0528E5287002B3
:100AF5000527750F03FBAA277D017F01120B478090
:010B0500E20D
:03000B00020920C7
:10092000C0E0C0F0C083C082C0D075D000C000C09D
:1009300001C002C003C004C005C006C007758CFC1E
:10094000758A180526E52670020525C394B8E525A5
:10095000940B40277525007526007BFF7A0B79CC18
:100960007D017F02120B067FB87E0B120B7A7BFF94
:100970007A0B79C67D017F02120B06D007D006D014
:1009800005D004D003D002D001D000D0D0D082D086
:0609900083D0F0D0E0323C
:060BB700C2A58F80D2A749
:080BBD007F027EEFDEFEDFFC8B
:010BC500220D
:0A0BD200C2A6120BB7C2A7020BBDAA
:100B2900CFCDCFCECCCE12083F7C007D0A12083F34
:040B3900ED2430FF78
:0A0B3D00D2A6120BB7C2A7020BBD2F
:100B6400AE07BE0104ED148006BE0209ED243F4425
:060B740080FF120BD222EB
:100BA3007F38120BD27F0C120BD27F06120BD27F2F
:040BB30001020BD25E
:0A0BDC00AC03120B64AF04020B3DE2
:060B06008B0B8A0C890D27
:100B0C00120B64E4FDAB0BAA0CA90D8D827583004E
:0C0B1C00120800FF6006120B3D0D80E97E
:010B280022AA
:0C0AA2007F0AEA24FFFDE434FFFC7E0024
:080AAE008E108F118C128D13C4
:100AB6007F017E00E4FBEBC39513E5126480F874B6
:0E0AC6008098500AAC10AD1112082D0B80E87C
:010AD40022FF
:040B47008A0D8B0E7A
:100B4B00120B64AA0FEAD39400400D120AA2AC0D4B
:080B5B00AD0E120B291A80ED0A
:010B6300226F
:1009F700120B64C3EA64809480400B7F2B120B3D7B
:100A07008A198B1A800E7F2D120B3DC3E49BF51AB2
:100A1700E49AF519AA18EAD39400400D120AA2AC79
:090A270019AD1A120B291A80ED19
:010A300022A3
:040A31008A1D8B1E71
:100A3500120B64AA1FEAD3940040297F10120AA45E
:100A4500AC1DAD1ECFCDCFCECCCE12083FEF540F8F
:100A5500FEC3940AEE5004243080022437FF120BA3
:040A65003D1A80D1E5
:010A6900226A
:040A6A008A228B232E
:100A6E00120B64AA24EAD394004028EA24FFFDE482
:100A7E0034FFFC7F027E00120AAEAC22AD23CFCD36
:100A8E00CFCECCCE12083FEF54012430FF120B3DD7
:030A9E001A80D2E9
:010AA1002232
:100B7A00EF1FAC0670011E4C600A7D027CC7DCFECA
:040B8A00DDFC80EC22
:010B8E002244
:10099600E4F52920B1137F14FE120B7A30B1FD7FE6
:1009A600147E00120B7A75290120B0147F147E0084
:1009B600120B7A30B0FD7F147E00120B7A75290275
:1009C60020B2147F147E00120B7A30B2FD7F147EA3
:1009D60000120B7A75290320B3147F147E00120BC4
:1009E6007A30B3FD7F147E00120B7A752904AF2985
:0109F60022DE
:030000000208945F
:0C089400787FE4F6D8FD7581290208DBAE
:10080000BB010CE58229F582E5833AF583E02250AD
:1008100006E92582F8E622BBFE06E92582F8E222F7
:0D082000E58229F582E5833AF583E4932211
:10082D00EF8DF0A4A8F0CF8CF0A428CE8DF0A42EDF
:02083D00FE2299
:10083F00BC000BBE0029EF8DF084FFADF022E4CC9D
:10084F00F875F008EF2FFFEE33FEEC33FCEE9DEC66
:10085F00984005FCEE9DFE0FD5F0E9E4CEFD22EDAC
:10086F00F8F5F0EE8420D21CFEADF075F008EF2FF6
:10087F00FFED33FD4007985006D5F0F222C398FDE7
:05088F000FD5F0EA2284
:1008A000020AD5E493A3F8E493A34003F68001F28F
:1008B00008DFF48029E493A3F85407240CC8C33359
:1008C000C4540F4420C8834004F456800146F6DF28
:1008D000E4800B0102040810204080900BE6E47EC7
:1008E000019360BCA3FF543F30E509541FFEE4931D
:1008F000A360010ECF54C025E060A840B8E493A3E4
:10090000FAE493A3F8E493A3C8C582C8CAC583CA0E
:10091000F0A3C8C582C8CAC583CADFE9DEE780BEC6
:010BEA00000A
:00000001FF
