:10075E00446179004461792020004E696768740015
:10076E0072756E200073746F700050726963653A13
:07077E0020002020202000D4
:10086300022B0000022700010229000102210000DF
:10082800758901C28DD28C758CFC758A18D2A9D2B3
:04083800AFC2B92270
:1007E300E4FBFAEF4E600E0BBB00010A7C007D0AAE
:0907F30012035F80EEAE02AF03B9
:0107FC0022DA
:0403A3008F088D0929
:1003A700AF0DAE0CAD0BAC0A12024A8E0E8F0FAC1E
:1003B7000EAD0FEC120211A804A905AA06AB07AFF0
:1003C7000DAE0CAD0BAC0A1200118F138E128D11EE
:1003D7008C10AF0FAE0E1207E38E148F1575170032
:1003E700751802AD09AF081207FD851516E516D376
:1003F7009400402FE51624FFFDE434FFFC7F0A7EBE
:1004070000120737AC0EAD0FCFCDCFCECCCE120337
:100417005F7C007D0A12035FED2430FF1207BC15D5
:100427001680CA7F2E1207BCD3E5189400E517641F
:05043700809480406785
:10043C00E4FFFE7D207C41AB13AA12A911A8101277
:10044C00010612024A8E198F1AEF2430FF1207BCD4
:10045C00E4FFFE7D207C41AB13AA12A911A8101257
:10046C000106C004C005C006C007AC19AD1AEC12D9
:10047C000211A804A905AA06AB07D007D006D0051F
:10048C00D0041200118F138E128D118C10E51815DB
:05049C001870021517A5
:0204A100808C4D
:0104A3002236
:1004A40012082812083C7BFF7A07795E802B12061B
:1004B4001F752D008F2EE52E6401452D701FC3047A
:1004C4009528F528E49527F52745287BFF60067ACB
:1004D40007796280047A0779687D01806FE52E646C
:1004E40002452D7042E52245217034E5284527AFA9
:1004F40026AE25AD24AC236007E4FBFA7920800501
:10050400E4FBFA793078411200158F268E258D246C
:100514008C237BFF7A07796E7D0A7F01120785752C
:1005240021007522018087E52E6403452D7025C3C3
:1005340004952AF52AE49529F529452A7BFF6006C6
:100544007A07796E80047A0779737D0A7F0112072E
:10055400850204B2E52E6404452D60030204B27BD7
:10056400FF7A0779787D017F011207857BFF7A077F
:1005740079807D0A7F0112078585260D85250C85E6
:0F058400240B85230A7D087F011203A30204B212
:03000B0002085098
:10085000C0E0758CFC758A180520E5207002051F24
:03086000D0E032B3
:06087400C2A58F80D2A78F
:08087A007F027EEFDEFEDFFCD1
:010882002253
:0A088300C2A6120874C2A702087A88
:1007A800CFCDCFCECCCE12030A7C007D0A12030A2D
:0407B800ED2430FFFD
:0A07BC00D2A6120874C2A702087A40
:1007FD00AE07BE0104ED148006BE0209ED243F4490
:06080D0080FF12088322A7
:10083C007F381208837F0C1208837F061208837F8F
:04084C00010208831A
:0A088D00AC031207FDAF040207BC24
:060785008B088A09890AB5
:10078B001207FDE4FDAB08AA09A90A8D8275830047
:0C079B001202CBFF60061207BC0D80E9C3
:0107A700222F
:0C072B007F0AEA24FFFDE434FFFC7E009E
:080737008E1B8F1C8C1D8D1E12
:10073F007F017E00E4FBEBC3951EE51D6480F8741A
:0E074F008098500AAC1BAD1C1202F80B80E81B
:01075D002279
:0407C6008A388B39A9
:1007CA001207FDAA3AEAD39400400D12072BAC385F
:0807DA00AD391207A81A80EDE9
:0107E20022F4
:100680001207FDC3EA64809480400B7F2B1207BCE5
:100690008A348B35800E7F2D1207BCC3E49BF53561
:1006A000E49AF534AA33EAD39400400D12072BAC38
:0906B00034AD351207A81A80EDE3
:0106B900221E
:0406BA008A3D8B3EAC
:1006BE001207FDAA3FEAD3940040297F1012072D9E
:1006CE00AC3DAD3ECFCDCFCECCCE12030AEF540F04
:1006DE00FEC3940AEE5004243080022437FF120722
:0406EE00BC1A80D1E1
:0106F20022E5
:0406F3008A428B4369
:1006F7001207FDAA44EAD394004028EA24FFFDE448
:1007070034FFFC7F027E00120737AC42AD43CFCDEA
:10071700CFCECCCE12030AEF54012430FF1207BC10
:030727001A80D263
:01072A0022AC
:10081300EF1FAC0670011E4C600A7D027CC7DCFE34
:04082300DDFC80EC8C
:0108270022AE
:10061F00E4F50820B1137F14FE12081330B1FD7FEB
:10062F00147E0012081375080120B0147F147E0089
:10063F0012081330B0FD7F147E00120813750802E4
:10064F0020B2147F147E0012081330B2FD7F147E87
:10065F000012081375080320B3147F147E001208CC
:10066F001330B3FD7F147E00120813750804AF0812
:01067F002258
:10000E000202B6E86480F8E933E83360110460F068
:10001E00ED33EC337009E8FCE9FDEAFEEBFF220458
:10002E0060DED3EB9FEA9EE99DE8C2E78CF0C2F753
:10003E0095F0400CE8CCF8E9CDF9EACEFAEBCFFB1F
:10004E0012028185D0F05804700320D5B3E80470F5
:10005E00075002B2D50202C092D5EC0460F7E4CC90
:10006E00C0E0C398F8603B94186008400DD0E0FBE8
:10007E00020298E4FBFAC9FC8028E830E406E4C9E1
:10008E00FBE4CAFCE830E305E4C9CACBFCE854073C
:10009E006010F8C3E913F9EA13FAEB13FBEC13FC47
:1000AE00D8F130F52FC3E49CFCEF9BFFEE9AFEEDEA
:1000BE0099FDD0E0FBEF4E4D4C701222DB03020295
:1000CE00BDEC2CFCEF33FFEE33FEED33FDED30E7F0
:1000DE00EB020298EF2BFFEE3AFEED39FDD0E0FB7E
:1000EE0050130BBB00030202C0ED13FDEE13FEEF27
:0800FE0013FFEC13FC02029851
:10010600EC4D6011E8497017ED33EC3304600DE4F3
:10011600FCFFFEFD22E933E8330470F80202B61252
:10012600028158046009E4CC248150062850090253
:1001360002C02840030202BDC0E0EB4A7044B98009
:1001460006D0E0FB0202ACEF4E701CBD8008EBFF50
:10015600EAFEE9FD80EBE98DF0A4FEE5F00201EF91
:10016600E9CDF9EAFEEBFFEF89F0A4FCE5F0CE89D4
:10017600F0A42EFFE435F0CD89F0A42DFEE435F091
:100186008067EF4E7005BD80D780C3EF8BF0A4ACBF
:10019600F0EE8BF0A42CFCE435F0F8EF8AF0A42CFA
:1001A600E5F038FCE433CB8DF0A42CFCE5F03BF80D
:1001B600EE8AF0A42CFCE5F038F8E433CF89F0A4FD
:1001C6002CFCE5F038CF3400CE89F0A42FFFE5F003
:1001D6003EFEE433C98DF0A42EFEE5F039CD8AF05B
:1001E600A42FFFE5F03EFEE43DFD33D0E0FB5007D3
:1001F6000BBB000F0202C0EC2CFCEF33FFEE33FE0C
:06020600ED33FD02029839
:10020C0075F020800E75F010800575F0087D007E6D
:10021C00007F003392D530D503120395EC33401098
:10022C00EF33FFEE33FEED33FDEC33FCD5F0ED2276
:0E023C00E5F0247EA2D513CC92E7CDCEFF22B2
:10024A00EDD2E7CD33EC3392D524814006E4FFFEAC
:10025A00FDFC22FCE4CFCECDCC24E0501174FF800B
:10026A00EDC3CC13CCCD13CDCE13CECF13CF0470A8
:07027A00F030D5DE02039510
:10028100E9D2E7C933E833F892D5EDD2E7CD33ECC3
:0702910033FC5002B2D5223C
:10029800EC30E7100FBF000C0EBE00080DBD0004C7
:1002A8000BEB6014A2D5EB13FCED92E7FD2274FF73
:1002B800FCFDFEFF22E480F8A2D574FF13FC7D80CC
:0302C800E480EFE0
:0300000002059363
:0C059300787FE4F6D8FD7581440205DA9B
:1002CB00BB010CE58229F582E5833AF583E02250E8
:1002DB0006E92582F8E622BBFE06E92582F8E22232
:0D02EB00E58229F582E5833AF583E493224C
:1002F800EF8DF0A4A8F0CF8CF0A428CE8DF0A42E1A
:02030800FE22D3
:10030A00BC000BBE0029EF8DF084FFADF022E4CCD7
:10031A00F875F008EF2FFFEE33FEEC33FCEE9DECA0
:10032A00984005FCEE9DFE0FD5F0E9E4CEFD22EDE6
:10033A00F8F5F0EE8420D21CFEADF075F008EF2F30
:10034A00FFED33FD4007985006D5F0F222C398FD21
:05035A000FD5F0EA22BE
:10035F00C2D5EC30E709B2D5E4C39DFDE49CFCEEB9
:10036F0030E715B2D5E4C39FFFE49EFE12030AC324
:10037F00E49DFDE49CFC800312030A30D507C3E41F
:06038F009FFFE49EFE2228
:0E039500C3E49FFFE49EFEE49DFDE49CFC2279
:10059F000204A4E493A3F8E493A34003F68001F2CA
:1005AF0008DFF48029E493A3F85407240CC8C3335D
:1005BF00C4540F4420C8834004F456800146F6DF2C
:1005CF00E4800B0102040810204080900863E47E51
:1005DF00019360BCA3FF543F30E509541FFEE49321
:1005EF00A360010ECF54C025E060A840B8E493A3E8
:1005FF00FAE493A3F8E493A3C8C582C8CAC583CA13
:10060F00F0A3C8C582C8CAC583CADFE9DEE780BECA
:010873000084
:00000001FF
