:10111700446179006B6D003A20203A202000446139
:10112700792020004E696768740073746F700072CD
:10113700756E200050726963653A200020202020D8
:0111470000A7
:10114800021E000002150001021C0001020C000032
:101158000219000001170001140001180002120012
:0C116800000220000002220000011B0019
:100B95001212461211ED1212047BFF7A1179177D9C
:100BA500017F011211757BFF7A11791B7D057F028B
:100BB5001211757BFF7A11791E7D0B7F021211755B
:100BC500752A04AB1AAA197D017F021211B6E51721
:100BD500FB3395E0FA752A027D097F021211B6E50D
:100BE50018FB3395E0FA752A027D0C7F021211B6C7
:100BF500E514FB3395E0FA752A027D0F7F02121189
:100C0500B6120FD87524008F25E52564014524709B
:100C150020C3049516F516E49515F51545167BFFC5
:100C250060067A11792580047A11792B7D01020CF1
:100C3500B6E525640245247044E50D450C7034E5A0
:100C4500164515AF11AE10AD0FAC0E6007E4FBFAFB
:100C550079208005E4FBFA793078411208078F1175
:100C65008E108D0F8C0E7BFF7A1179317D097F01F6
:100C7500121175750C00750D01D28C8070E5256417
:100C85000345247033C304951DF51DE4951CF51C1F
:100C9500208C06D28CC28E8004C28CD28EE51D4576
:100CA5001C7BFF60067A11793680047A1179317DD3
:100CB500097F011211758035E52564044524702DE1
:100CC5007BFF7A11793B7D017F011211757BFF7ADC
:100CD5001179437D0A7F0112117585112B85102A23
:100CE500850F29850E287D097F01120D19E51464EC
:100CF5000A6003020BC5E51B6003020BC5751B01EA
:100D0500C28CD28E7BFF7A1179367D097F01121153
:040D150075020BC593
:03000B00020E08DA
:100E0800C0E0C0F0C083C082C0D075D000C000C0B0
:0D0E180001C002C003C004C005C006C00731
:100E2500758A66758CFC0509E50970020508C39489
:100E3500E8E508940340547508007509000514E5B4
:100E450014648094BC40447514000518E5164515D6
:100E5500AF11AE10AD0FAC0E6006E4FBFAF98005DC
:100E6500E4FBFA792078401208078F118E108D0F58
:100E75008C0EC3E518648094BC40107518000517E6
:0B0E8500E51764809498400375170087
:100E9000D007D006D005D004D003D002D001D000B6
:0B0EA000D0D0D082D083D0F0D0E03260
:03001B00020EAB27
:100EAB00C0E0C0F0C083C082C0D075D000C000C00D
:0D0EBB0001C002C003C004C005C006C0078E
:100EC800758B66758DFC050BE50B7002050AC394DE
:100ED800E8E50A94034052750A00750B000521E500
:100EE8002170020520943CE5209400403C752000C8
:100EF8007521000523E52370020522051AE51A70FD
:100F0800020519E5164515AF11AE10AD0FAC0E6010
:100F180006E4FBFAF98005E4FBFA79207840120828
:090F2800078F118E108D0F8C0E45
:100F3100D007D006D005D004D003D002D001D00014
:0B0F4100D0D0D082D083D0F0D0E032BE
:06125A00C2A58F80D2A79F
:081260007F027EEFDEFEDFFCE1
:011268002263
:0A126900C2A612125AC2A7021260B8
:10119800CFCDCFCECCCE120AFC7C007D0A120AFC41
:0411A800ED2430FF03
:0A11AC00D2A612125AC2A702126066
:10121B00AE07BE0104ED148006BE0209ED243F4467
:06122B0080FF121269228F
:101246007F381212697F0C1212697F061212697FAB
:041256000102126916
:0A127300AC0312121BAF040211AC11
:061175008B268A27892861
:10117B0012121BE4FDAB26AA27A9288D82758300CA
:0C118B00120ABDFF60061211AC0D80E9D5
:011197002235
:0C10E4007F0AEA24FFFDE434FFFC7E00DC
:0810F0008E368F378C388D39E4
:1010F8007F017E00E4FBEBC39539E5386480F87422
:0E1108008098500AAC36AD37120AEA0B80E828
:0111160022B6
:0411B6008A288B29CF
:1011BA0012121BAA2AEAD39400400D1210E4AC289A
:0811CA00AD291211981A80ED05
:0111D20022FA
:1010390012121BC3EA64809480400B7F2B1211ACFF
:101049008A3F8B40800E7F2D1211ACC3E49BF54083
:10105900E49AF53FAA3EEAD39400400D1210E4AC9D
:091069003FAD401211981A80ED10
:01107200225B
:041073008A438B44DD
:1010770012121BAA45EAD3940040297F101210E6EA
:10108700AC43AD44CFCDCFCECCCE120AFCEF540F3C
:10109700FEC3940AEE5004243080022437FF121155
:0410A700AC1A80D12E
:0110AB002222
:0410AC008A488B499A
:1010B00012121BAA4AEAD394004028EA24FFFDE456
:1010C00034FFFC7F027E001210F0AC48AD49CFCD5A
:1010D000CFCECCCE120AFCEF54012430FF1211AC5B
:0310E0001A80D2A1
:0110E30022EA
:1011D300E4FBFAEF4E600E0BBB00010A7C007D0AB4
:0911E300120B5180EEAE02AF03C5
:0111EC0022E0
:040D19008F268D276D
:100D1D00AF2BAE2AAD29AC28120A3C8E2C8F2DACF0
:100D2D002CAD2DEC120A03A804A905AA06AB07AF3A
:100D3D002BAE2AAD29AC281208038F318E308D2FA2
:100D4D008C2EAF2DAE2C1211D3AB07AA0675320027
:100D5D00753302AD27AF2612121BAF03AA07EAD3D4
:100D6D009400401D1210E4AC2CAD2DCFCDCFCECCC8
:100D7D00CE120B517C007D0A120B511211A81A8054
:100D8D00DD7F2E1211ACD3E5339400E532648094EF
:030D9D008040672C
:100DA000E4FFFE7D207C41AB31AA30A92FA82E1292
:100DB00008F8120A3C8E348F35EF2430FF1211AC44
:100DC000E4FFFE7D207C41AB31AA30A92FA82E1272
:100DD00008F8C004C005C006C007AC34AD35EC123D
:100DE0000A03A804A905AA06AB07D007D006D005B8
:100DF000D0041208038F318E308D2F8C2EE53315E1
:050E0000337002153201
:020E0500808CDF
:010E070022C8
:10123100EF1FAC0670011E4C600A7D027CC7DCFE0C
:04124100DDFC80EC64
:011245002286
:100FD800E4F52620B1137F14FE12123130B1FD7FE3
:100FE800147E0012123175260120B0147F147E0081
:100FF80012123130B0FD7F147E00121231752602B4
:1010080020B2147F147E0012123130B2FD7F147E9C
:101018000012123175260320B3147F147E001212B9
:101028003130B3FD7F147E00121231752604AF26CD
:011038002295
:1011ED005389F0438901758A66758CFCC28DC28C5A
:0711FD00D2A9D2AFC2B92252
:1012040053890F438910758B66758DFCC28FC28E0E
:07121400D2ABD2AFC2BB2236
:10080000020AA8E86480F8E933E83360110460F074
:10081000ED33EC337009E8FCE9FDEAFEEBFF22045E
:1008200060DED3EB9FEA9EE99DE8C2E78CF0C2F759
:1008300095F0400CE8CCF8E9CDF9EACEFAEBCFFB25
:10084000120A7385D0F05804700320D5B3E8047001
:10085000075002B2D5020AB292D5EC0460F7E4CC9C
:10086000C0E0C398F8603B94186008400DD0E0FBEE
:10087000020A8AE4FBFAC9FC8028E830E406E4C9ED
:10088000FBE4CAFCE830E305E4C9CACBFCE8540742
:100890006010F8C3E913F9EA13FAEB13FBEC13FC4D
:1008A000D8F130F52FC3E49CFCEF9BFFEE9AFEEDF0
:1008B00099FDD0E0FBEF4E4D4C701222DB03020A93
:1008C000AFEC2CFCEF33FFEE33FEED33FDED30E704
:1008D000EB020A8AEF2BFFEE3AFEED39FDD0E0FB8A
:1008E00050130BBB0003020AB2ED13FDEE13FEEF33
:0808F00013FFEC13FC020A8A5D
:1008F800EC4D6011E8497017ED33EC3304600DE4FA
:10090800FCFFFEFD22E933E8330470F8020AA8125E
:100918000A7358046009E4CC24815006285009025F
:100928000AB2284003020AAFC0E0EB4A7044B9801B
:1009380006D0E0FB020A9EEF4E701CBD8008EBFF5C
:10094800EAFEE9FD80EBE98DF0A4FEE5F00209E19D
:10095800E9CDF9EAFEEBFFEF89F0A4FCE5F0CE89DA
:10096800F0A42EFFE435F0CD89F0A42DFEE435F097
:100978008067EF4E7005BD80D780C3EF8BF0A4ACC5
:10098800F0EE8BF0A42CFCE435F0F8EF8AF0A42C00
:10099800E5F038FCE433CB8DF0A42CFCE5F03BF813
:1009A800EE8AF0A42CFCE5F038F8E433CF89F0A403
:1009B8002CFCE5F038CF3400CE89F0A42FFFE5F009
:1009C8003EFEE433C98DF0A42EFEE5F039CD8AF061
:1009D800A42FFFE5F03EFEE43DFD33D0E0FB5007D9
:1009E8000BBB000F020AB2EC2CFCEF33FFEE33FE18
:0609F800ED33FD020A8A46
:1009FE0075F020800E75F010800575F0087D007E74
:100A0E00007F003392D530D503120B87EC334010A4
:100A1E00EF33FFEE33FEED33FDEC33FCD5F0ED227C
:0E0A2E00E5F0247EA2D513CC92E7CDCEFF22B8
:100A3C00EDD2E7CD33EC3392D524814006E4FFFEB2
:100A4C00FDFC22FCE4CFCECDCC24E0501174FF8011
:100A5C00EDC3CC13CCCD13CDCE13CECF13CF0470AE
:070A6C00F030D5DE020B871C
:100A7300E9D2E7C933E833F892D5EDD2E7CD33ECC9
:070A830033FC5002B2D52242
:100A8A00EC30E7100FBF000C0EBE00080DBD0004CD
:100A9A000BEB6014A2D5EB13FCED92E7FD2274FF79
:100AAA00FCFDFEFF22E480F8A2D574FF13FC7D80D2
:030ABA00E480EFE6
:03000000020F4CA0
:0C0F4C00787FE4F6D8FD75814A020F930F
:100ABD00BB010CE58229F582E5833AF583E02250EE
:100ACD0006E92582F8E622BBFE06E92582F8E22238
:0D0ADD00E58229F582E5833AF583E4932252
:100AEA00EF8DF0A4A8F0CF8CF0A428CE8DF0A42E20
:020AFA00FE22DA
:100AFC00BC000BBE0029EF8DF084FFADF022E4CCDE
:100B0C00F875F008EF2FFFEE33FEEC33FCEE9DECA6
:100B1C00984005FCEE9DFE0FD5F0E9E4CEFD22EDEC
:100B2C00F8F5F0EE8420D21CFEADF075F008EF2F36
:100B3C00FFED33FD4007985006D5F0F222C398FD27
:050B4C000FD5F0EA22C4
:100B5100C2D5EC30E709B2D5E4C39DFDE49CFCEEBF
:100B610030E715B2D5E4C39FFFE49EFE120AFCC331
:100B7100E49DFDE49CFC8003120AFC30D507C3E42C
:060B81009FFFE49EFE222E
:0E0B8700C3E49FFFE49EFEE49DFDE49CFC227F
:100F5800020B95E493A3F8E493A34003F68001F20F
:100F680008DFF48029E493A3F85407240CC8C3339A
:100F7800C4540F4420C8834004F456800146F6DF69
:100F8800E4800B0102040810204080901148E47EA0
:100F9800019360BCA3FF543F30E509541FFEE4935E
:100FA800A360010ECF54C025E060A840B8E493A325
:100FB800FAE493A3F8E493A3C8C582C8CAC583CA50
:100FC800F0A3C8C582C8CAC583CADFE9DEE780BE08
:01117400007A
:00000001FF
